{
  "address": "0x21Fb571055d47863264036e29b59B268021444a9",
  "abi": [
    {
      "inputs": [],
      "stateMutability": "nonpayable",
      "type": "constructor"
    },
    {
      "inputs": [],
      "name": "ApprovalCallerNotOwnerNorApproved",
      "type": "error"
    },
    {
      "inputs": [],
      "name": "ApprovalQueryForNonexistentToken",
      "type": "error"
    },
    {
      "inputs": [],
      "name": "BalanceQueryForZeroAddress",
      "type": "error"
    },
    {
      "inputs": [],
      "name": "MintERC2309QuantityExceedsLimit",
      "type": "error"
    },
    {
      "inputs": [],
      "name": "MintToZeroAddress",
      "type": "error"
    },
    {
      "inputs": [],
      "name": "MintZeroQuantity",
      "type": "error"
    },
    {
      "inputs": [],
      "name": "OwnerQueryForNonexistentToken",
      "type": "error"
    },
    {
      "inputs": [],
      "name": "OwnershipNotInitializedForExtraData",
      "type": "error"
    },
    {
      "inputs": [],
      "name": "TransferCallerNotOwnerNorApproved",
      "type": "error"
    },
    {
      "inputs": [],
      "name": "TransferFromIncorrectOwner",
      "type": "error"
    },
    {
      "inputs": [],
      "name": "TransferToNonERC721ReceiverImplementer",
      "type": "error"
    },
    {
      "inputs": [],
      "name": "TransferToZeroAddress",
      "type": "error"
    },
    {
      "inputs": [],
      "name": "URIQueryForNonexistentToken",
      "type": "error"
    },
    {
      "anonymous": false,
      "inputs": [
        {
          "indexed": true,
          "internalType": "address",
          "name": "owner",
          "type": "address"
        },
        {
          "indexed": true,
          "internalType": "address",
          "name": "approved",
          "type": "address"
        },
        {
          "indexed": true,
          "internalType": "uint256",
          "name": "tokenId",
          "type": "uint256"
        }
      ],
      "name": "Approval",
      "type": "event"
    },
    {
      "anonymous": false,
      "inputs": [
        {
          "indexed": true,
          "internalType": "address",
          "name": "owner",
          "type": "address"
        },
        {
          "indexed": true,
          "internalType": "address",
          "name": "operator",
          "type": "address"
        },
        {
          "indexed": false,
          "internalType": "bool",
          "name": "approved",
          "type": "bool"
        }
      ],
      "name": "ApprovalForAll",
      "type": "event"
    },
    {
      "anonymous": false,
      "inputs": [
        {
          "indexed": true,
          "internalType": "uint256",
          "name": "fromTokenId",
          "type": "uint256"
        },
        {
          "indexed": false,
          "internalType": "uint256",
          "name": "toTokenId",
          "type": "uint256"
        },
        {
          "indexed": true,
          "internalType": "address",
          "name": "from",
          "type": "address"
        },
        {
          "indexed": true,
          "internalType": "address",
          "name": "to",
          "type": "address"
        }
      ],
      "name": "ConsecutiveTransfer",
      "type": "event"
    },
    {
      "anonymous": false,
      "inputs": [
        {
          "indexed": true,
          "internalType": "address",
          "name": "previousOwner",
          "type": "address"
        },
        {
          "indexed": true,
          "internalType": "address",
          "name": "newOwner",
          "type": "address"
        }
      ],
      "name": "OwnershipTransferred",
      "type": "event"
    },
    {
      "anonymous": false,
      "inputs": [
        {
          "indexed": true,
          "internalType": "address",
          "name": "from",
          "type": "address"
        },
        {
          "indexed": true,
          "internalType": "address",
          "name": "to",
          "type": "address"
        },
        {
          "indexed": true,
          "internalType": "uint256",
          "name": "tokenId",
          "type": "uint256"
        }
      ],
      "name": "Transfer",
      "type": "event"
    },
    {
      "inputs": [
        {
          "internalType": "address",
          "name": "",
          "type": "address"
        }
      ],
      "name": "amountNFTsPerWallet",
      "outputs": [
        {
          "internalType": "uint256",
          "name": "",
          "type": "uint256"
        }
      ],
      "stateMutability": "view",
      "type": "function"
    },
    {
      "inputs": [
        {
          "internalType": "address",
          "name": "to",
          "type": "address"
        },
        {
          "internalType": "uint256",
          "name": "tokenId",
          "type": "uint256"
        }
      ],
      "name": "approve",
      "outputs": [],
      "stateMutability": "payable",
      "type": "function"
    },
    {
      "inputs": [
        {
          "internalType": "address",
          "name": "owner",
          "type": "address"
        }
      ],
      "name": "balanceOf",
      "outputs": [
        {
          "internalType": "uint256",
          "name": "",
          "type": "uint256"
        }
      ],
      "stateMutability": "view",
      "type": "function"
    },
    {
      "inputs": [],
      "name": "baseURI",
      "outputs": [
        {
          "internalType": "string",
          "name": "",
          "type": "string"
        }
      ],
      "stateMutability": "view",
      "type": "function"
    },
    {
      "inputs": [
        {
          "internalType": "uint256",
          "name": "tokenId",
          "type": "uint256"
        }
      ],
      "name": "getApproved",
      "outputs": [
        {
          "internalType": "address",
          "name": "",
          "type": "address"
        }
      ],
      "stateMutability": "view",
      "type": "function"
    },
    {
      "inputs": [
        {
          "internalType": "address",
          "name": "owner",
          "type": "address"
        },
        {
          "internalType": "address",
          "name": "operator",
          "type": "address"
        }
      ],
      "name": "isApprovedForAll",
      "outputs": [
        {
          "internalType": "bool",
          "name": "",
          "type": "bool"
        }
      ],
      "stateMutability": "view",
      "type": "function"
    },
    {
      "inputs": [
        {
          "internalType": "uint256",
          "name": "_quantity",
          "type": "uint256"
        }
      ],
      "name": "mint",
      "outputs": [],
      "stateMutability": "payable",
      "type": "function"
    },
    {
      "inputs": [],
      "name": "name",
      "outputs": [
        {
          "internalType": "string",
          "name": "",
          "type": "string"
        }
      ],
      "stateMutability": "view",
      "type": "function"
    },
    {
      "inputs": [],
      "name": "owner",
      "outputs": [
        {
          "internalType": "address",
          "name": "",
          "type": "address"
        }
      ],
      "stateMutability": "view",
      "type": "function"
    },
    {
      "inputs": [
        {
          "internalType": "uint256",
          "name": "tokenId",
          "type": "uint256"
        }
      ],
      "name": "ownerOf",
      "outputs": [
        {
          "internalType": "address",
          "name": "",
          "type": "address"
        }
      ],
      "stateMutability": "view",
      "type": "function"
    },
    {
      "inputs": [],
      "name": "renounceOwnership",
      "outputs": [],
      "stateMutability": "nonpayable",
      "type": "function"
    },
    {
      "inputs": [
        {
          "internalType": "address",
          "name": "from",
          "type": "address"
        },
        {
          "internalType": "address",
          "name": "to",
          "type": "address"
        },
        {
          "internalType": "uint256",
          "name": "tokenId",
          "type": "uint256"
        }
      ],
      "name": "safeTransferFrom",
      "outputs": [],
      "stateMutability": "payable",
      "type": "function"
    },
    {
      "inputs": [
        {
          "internalType": "address",
          "name": "from",
          "type": "address"
        },
        {
          "internalType": "address",
          "name": "to",
          "type": "address"
        },
        {
          "internalType": "uint256",
          "name": "tokenId",
          "type": "uint256"
        },
        {
          "internalType": "bytes",
          "name": "_data",
          "type": "bytes"
        }
      ],
      "name": "safeTransferFrom",
      "outputs": [],
      "stateMutability": "payable",
      "type": "function"
    },
    {
      "inputs": [],
      "name": "saleStartTime",
      "outputs": [
        {
          "internalType": "uint256",
          "name": "",
          "type": "uint256"
        }
      ],
      "stateMutability": "view",
      "type": "function"
    },
    {
      "inputs": [
        {
          "internalType": "address",
          "name": "operator",
          "type": "address"
        },
        {
          "internalType": "bool",
          "name": "approved",
          "type": "bool"
        }
      ],
      "name": "setApprovalForAll",
      "outputs": [],
      "stateMutability": "nonpayable",
      "type": "function"
    },
    {
      "inputs": [
        {
          "internalType": "string",
          "name": "_baseURI",
          "type": "string"
        }
      ],
      "name": "setBaseUri",
      "outputs": [],
      "stateMutability": "nonpayable",
      "type": "function"
    },
    {
      "inputs": [
        {
          "internalType": "uint256",
          "name": "_saleStartTime",
          "type": "uint256"
        }
      ],
      "name": "setSaleStartTime",
      "outputs": [],
      "stateMutability": "nonpayable",
      "type": "function"
    },
    {
      "inputs": [
        {
          "internalType": "bytes4",
          "name": "interfaceId",
          "type": "bytes4"
        }
      ],
      "name": "supportsInterface",
      "outputs": [
        {
          "internalType": "bool",
          "name": "",
          "type": "bool"
        }
      ],
      "stateMutability": "view",
      "type": "function"
    },
    {
      "inputs": [],
      "name": "symbol",
      "outputs": [
        {
          "internalType": "string",
          "name": "",
          "type": "string"
        }
      ],
      "stateMutability": "view",
      "type": "function"
    },
    {
      "inputs": [
        {
          "internalType": "uint256",
          "name": "_tokenId",
          "type": "uint256"
        }
      ],
      "name": "tokenURI",
      "outputs": [
        {
          "internalType": "string",
          "name": "",
          "type": "string"
        }
      ],
      "stateMutability": "view",
      "type": "function"
    },
    {
      "inputs": [],
      "name": "totalSupply",
      "outputs": [
        {
          "internalType": "uint256",
          "name": "",
          "type": "uint256"
        }
      ],
      "stateMutability": "view",
      "type": "function"
    },
    {
      "inputs": [
        {
          "internalType": "address",
          "name": "from",
          "type": "address"
        },
        {
          "internalType": "address",
          "name": "to",
          "type": "address"
        },
        {
          "internalType": "uint256",
          "name": "tokenId",
          "type": "uint256"
        }
      ],
      "name": "transferFrom",
      "outputs": [],
      "stateMutability": "payable",
      "type": "function"
    },
    {
      "inputs": [
        {
          "internalType": "address",
          "name": "newOwner",
          "type": "address"
        }
      ],
      "name": "transferOwnership",
      "outputs": [],
      "stateMutability": "nonpayable",
      "type": "function"
    },
    {
      "inputs": [],
      "name": "withdraw",
      "outputs": [],
      "stateMutability": "payable",
      "type": "function"
    }
  ],
  "transactionHash": "0x97b41fe6b2b9a102ed43995648d8631fd3f508827658324e779f4d4207743a27",
  "args": [],
  "numDeployments": 4,
  "solcInputHash": "da434d254a56b142b5cddf75eea12bb4",
  "bytecode": "0x6080604052636489cf0c6009553480156200001957600080fd5b506040518060400160405280600781526020017f5961736d696e65000000000000000000000000000000000000000000000000008152506040518060400160405280600381526020017f5941530000000000000000000000000000000000000000000000000000000000815250816002908162000097919062000435565b508060039081620000a9919062000435565b50620000ba620000e860201b60201c565b6000819055505050620000e2620000d6620000ed60201b60201c565b620000f560201b60201c565b6200051c565b600090565b600033905090565b6000600860009054906101000a900473ffffffffffffffffffffffffffffffffffffffff16905081600860006101000a81548173ffffffffffffffffffffffffffffffffffffffff021916908373ffffffffffffffffffffffffffffffffffffffff1602179055508173ffffffffffffffffffffffffffffffffffffffff168173ffffffffffffffffffffffffffffffffffffffff167f8be0079c531659141344cd1fd0a4f28419497f9722a3daafe3b4186f6b6457e060405160405180910390a35050565b600081519050919050565b7f4e487b7100000000000000000000000000000000000000000000000000000000600052604160045260246000fd5b7f4e487b7100000000000000000000000000000000000000000000000000000000600052602260045260246000fd5b600060028204905060018216806200023d57607f821691505b602082108103620002535762000252620001f5565b5b50919050565b60008190508160005260206000209050919050565b60006020601f8301049050919050565b600082821b905092915050565b600060088302620002bd7fffffffffffffffffffffffffffffffffffffffffffffffffffffffffffffffff826200027e565b620002c986836200027e565b95508019841693508086168417925050509392505050565b6000819050919050565b6000819050919050565b600062000316620003106200030a84620002e1565b620002eb565b620002e1565b9050919050565b6000819050919050565b6200033283620002f5565b6200034a62000341826200031d565b8484546200028b565b825550505050565b600090565b6200036162000352565b6200036e81848462000327565b505050565b5b8181101562000396576200038a60008262000357565b60018101905062000374565b5050565b601f821115620003e557620003af8162000259565b620003ba846200026e565b81016020851015620003ca578190505b620003e2620003d9856200026e565b83018262000373565b50505b505050565b600082821c905092915050565b60006200040a60001984600802620003ea565b1980831691505092915050565b6000620004258383620003f7565b9150826002028217905092915050565b6200044082620001bb565b67ffffffffffffffff8111156200045c576200045b620001c6565b5b62000468825462000224565b620004758282856200039a565b600060209050601f831160018114620004ad576000841562000498578287015190505b620004a4858262000417565b86555062000514565b601f198416620004bd8662000259565b60005b82811015620004e757848901518255600182019150602085019450602081019050620004c0565b8683101562000507578489015162000503601f891682620003f7565b8355505b6001600288020188555050505b505050505050565b612ce1806200052c6000396000f3fe60806040526004361061014b5760003560e01c806370a08231116100b6578063a22cb4651161006f578063a22cb46514610429578063b88d4fde14610452578063c87b56dd1461046e578063df3a4586146104ab578063e985e9c5146104e8578063f2fde38b146105255761014b565b806370a082311461033a578063715018a6146103775780638da5cb5b1461038e57806395d89b41146103b9578063a0712d68146103e4578063a0bcfc7f146104005761014b565b806323b872dd1161010857806323b872dd146102675780633ccfd60b1461028357806342842e0e1461028d578063525f8a5c146102a95780636352211e146102d25780636c0360eb1461030f5761014b565b806301ffc9a71461015057806306fdde031461018d578063081812fc146101b8578063095ea7b3146101f557806318160ddd146102115780631cbaee2d1461023c575b600080fd5b34801561015c57600080fd5b5061017760048036038101906101729190611d44565b61054e565b6040516101849190611d8c565b60405180910390f35b34801561019957600080fd5b506101a26105e0565b6040516101af9190611e37565b60405180910390f35b3480156101c457600080fd5b506101df60048036038101906101da9190611e8f565b610672565b6040516101ec9190611efd565b60405180910390f35b61020f600480360381019061020a9190611f44565b6106f1565b005b34801561021d57600080fd5b50610226610835565b6040516102339190611f93565b60405180910390f35b34801561024857600080fd5b5061025161084c565b60405161025e9190611f93565b60405180910390f35b610281600480360381019061027c9190611fae565b610852565b005b61028b610b74565b005b6102a760048036038101906102a29190611fae565b610bfc565b005b3480156102b557600080fd5b506102d060048036038101906102cb9190611e8f565b610c1c565b005b3480156102de57600080fd5b506102f960048036038101906102f49190611e8f565b610c2e565b6040516103069190611efd565b60405180910390f35b34801561031b57600080fd5b50610324610c40565b6040516103319190611e37565b60405180910390f35b34801561034657600080fd5b50610361600480360381019061035c9190612001565b610cce565b60405161036e9190611f93565b60405180910390f35b34801561038357600080fd5b5061038c610d86565b005b34801561039a57600080fd5b506103a3610d9a565b6040516103b09190611efd565b60405180910390f35b3480156103c557600080fd5b506103ce610dc4565b6040516103db9190611e37565b60405180910390f35b6103fe60048036038101906103f99190611e8f565b610e56565b005b34801561040c57600080fd5b5061042760048036038101906104229190612163565b61103e565b005b34801561043557600080fd5b50610450600480360381019061044b91906121d8565b611059565b005b61046c600480360381019061046791906122b9565b611164565b005b34801561047a57600080fd5b5061049560048036038101906104909190611e8f565b6111d7565b6040516104a29190611e37565b60405180910390f35b3480156104b757600080fd5b506104d260048036038101906104cd9190612001565b611253565b6040516104df9190611f93565b60405180910390f35b3480156104f457600080fd5b5061050f600480360381019061050a919061233c565b61126b565b60405161051c9190611d8c565b60405180910390f35b34801561053157600080fd5b5061054c60048036038101906105479190612001565b6112ff565b005b60006301ffc9a760e01b827bffffffffffffffffffffffffffffffffffffffffffffffffffffffff191614806105a957506380ac58cd60e01b827bffffffffffffffffffffffffffffffffffffffffffffffffffffffff1916145b806105d95750635b5e139f60e01b827bffffffffffffffffffffffffffffffffffffffffffffffffffffffff1916145b9050919050565b6060600280546105ef906123ab565b80601f016020809104026020016040519081016040528092919081815260200182805461061b906123ab565b80156106685780601f1061063d57610100808354040283529160200191610668565b820191906000526020600020905b81548152906001019060200180831161064b57829003601f168201915b5050505050905090565b600061067d82611382565b6106b3576040517fcf4700e400000000000000000000000000000000000000000000000000000000815260040160405180910390fd5b6006600083815260200190815260200160002060000160009054906101000a900473ffffffffffffffffffffffffffffffffffffffff169050919050565b60006106fc82610c2e565b90508073ffffffffffffffffffffffffffffffffffffffff1661071d6113e1565b73ffffffffffffffffffffffffffffffffffffffff161461078057610749816107446113e1565b61126b565b61077f576040517fcfb3b94200000000000000000000000000000000000000000000000000000000815260040160405180910390fd5b5b826006600084815260200190815260200160002060000160006101000a81548173ffffffffffffffffffffffffffffffffffffffff021916908373ffffffffffffffffffffffffffffffffffffffff160217905550818373ffffffffffffffffffffffffffffffffffffffff168273ffffffffffffffffffffffffffffffffffffffff167f8c5be1e5ebec7d5bd14f71427d1e84f3dd0314c0f7b2291e5b200ac8c7c3b92560405160405180910390a4505050565b600061083f6113e9565b6001546000540303905090565b60095481565b600061085d826113ee565b90508373ffffffffffffffffffffffffffffffffffffffff168173ffffffffffffffffffffffffffffffffffffffff16146108c4576040517fa114810000000000000000000000000000000000000000000000000000000000815260040160405180910390fd5b6000806108d0846114ba565b915091506108e681876108e16113e1565b6114e1565b610932576108fb866108f66113e1565b61126b565b610931576040517f59c896be00000000000000000000000000000000000000000000000000000000815260040160405180910390fd5b5b600073ffffffffffffffffffffffffffffffffffffffff168573ffffffffffffffffffffffffffffffffffffffff1603610998576040517fea553b3400000000000000000000000000000000000000000000000000000000815260040160405180910390fd5b6109a58686866001611525565b80156109b057600082555b600560008773ffffffffffffffffffffffffffffffffffffffff1673ffffffffffffffffffffffffffffffffffffffff168152602001908152602001600020600081546001900391905081905550600560008673ffffffffffffffffffffffffffffffffffffffff1673ffffffffffffffffffffffffffffffffffffffff1681526020019081526020016000206000815460010191905081905550610a7e85610a5a88888761152b565b7c020000000000000000000000000000000000000000000000000000000017611553565b600460008681526020019081526020016000208190555060007c0200000000000000000000000000000000000000000000000000000000841603610b045760006001850190506000600460008381526020019081526020016000205403610b02576000548114610b01578360046000838152602001908152602001600020819055505b5b505b838573ffffffffffffffffffffffffffffffffffffffff168773ffffffffffffffffffffffffffffffffffffffff167fddf252ad1be2c89b69c2b068fc378daa952ba7f163c4a11628f55a4df523b3ef60405160405180910390a4610b6c868686600161157e565b505050505050565b610b7c611584565b6000610b86610d9a565b73ffffffffffffffffffffffffffffffffffffffff1647604051610ba99061240d565b60006040518083038185875af1925050503d8060008114610be6576040519150601f19603f3d011682016040523d82523d6000602084013e610beb565b606091505b5050905080610bf957600080fd5b50565b610c1783838360405180602001604052806000815250611164565b505050565b610c24611584565b8060098190555050565b6000610c39826113ee565b9050919050565b600a8054610c4d906123ab565b80601f0160208091040260200160405190810160405280929190818152602001828054610c79906123ab565b8015610cc65780601f10610c9b57610100808354040283529160200191610cc6565b820191906000526020600020905b815481529060010190602001808311610ca957829003601f168201915b505050505081565b60008073ffffffffffffffffffffffffffffffffffffffff168273ffffffffffffffffffffffffffffffffffffffff1603610d35576040517f8f4eb60400000000000000000000000000000000000000000000000000000000815260040160405180910390fd5b67ffffffffffffffff600560008473ffffffffffffffffffffffffffffffffffffffff1673ffffffffffffffffffffffffffffffffffffffff16815260200190815260200160002054169050919050565b610d8e611584565b610d986000611602565b565b6000600860009054906101000a900473ffffffffffffffffffffffffffffffffffffffff16905090565b606060038054610dd3906123ab565b80601f0160208091040260200160405190810160405280929190818152602001828054610dff906123ab565b8015610e4c5780601f10610e2157610100808354040283529160200191610e4c565b820191906000526020600020905b815481529060010190602001808311610e2f57829003601f168201915b5050505050905090565b600954610e616116c8565b1015610ea2576040517f08c379a0000000000000000000000000000000000000000000000000000000008152600401610e999061246e565b60405180910390fd5b600a81610ead610835565b610eb791906124bd565b1115610ef8576040517f08c379a0000000000000000000000000000000000000000000000000000000008152600401610eef9061253d565b60405180910390fd5b8066038d7ea4c68000610f0b919061255d565b341015610f4d576040517f08c379a0000000000000000000000000000000000000000000000000000000008152600401610f44906125eb565b60405180910390fd5b600381600b60003373ffffffffffffffffffffffffffffffffffffffff1673ffffffffffffffffffffffffffffffffffffffff16815260200190815260200160002054610f9a91906124bd565b1115610fdb576040517f08c379a0000000000000000000000000000000000000000000000000000000008152600401610fd290612657565b60405180910390fd5b80600b60003373ffffffffffffffffffffffffffffffffffffffff1673ffffffffffffffffffffffffffffffffffffffff168152602001908152602001600020600082825461102a91906124bd565b9250508190555061103b33826116d0565b50565b611046611584565b80600a90816110559190612823565b5050565b80600760006110666113e1565b73ffffffffffffffffffffffffffffffffffffffff1673ffffffffffffffffffffffffffffffffffffffff16815260200190815260200160002060008473ffffffffffffffffffffffffffffffffffffffff1673ffffffffffffffffffffffffffffffffffffffff16815260200190815260200160002060006101000a81548160ff0219169083151502179055508173ffffffffffffffffffffffffffffffffffffffff166111136113e1565b73ffffffffffffffffffffffffffffffffffffffff167f17307eab39ab6107e8899845ad3d59bd9653f200f220920489ca2b5937696c31836040516111589190611d8c565b60405180910390a35050565b61116f848484610852565b60008373ffffffffffffffffffffffffffffffffffffffff163b146111d15761119a848484846116ee565b6111d0576040517fd1a57ed600000000000000000000000000000000000000000000000000000000815260040160405180910390fd5b5b50505050565b60606111e282611382565b611221576040517f08c379a000000000000000000000000000000000000000000000000000000000815260040161121890612941565b60405180910390fd5b600a61122c8361183e565b60405160200161123d929190612a6c565b6040516020818303038152906040529050919050565b600b6020528060005260406000206000915090505481565b6000600760008473ffffffffffffffffffffffffffffffffffffffff1673ffffffffffffffffffffffffffffffffffffffff16815260200190815260200160002060008373ffffffffffffffffffffffffffffffffffffffff1673ffffffffffffffffffffffffffffffffffffffff16815260200190815260200160002060009054906101000a900460ff16905092915050565b611307611584565b600073ffffffffffffffffffffffffffffffffffffffff168173ffffffffffffffffffffffffffffffffffffffff1603611376576040517f08c379a000000000000000000000000000000000000000000000000000000000815260040161136d90612b0d565b60405180910390fd5b61137f81611602565b50565b60008161138d6113e9565b1115801561139c575060005482105b80156113da575060007c0100000000000000000000000000000000000000000000000000000000600460008581526020019081526020016000205416145b9050919050565b600033905090565b600090565b600080829050806113fd6113e9565b11611483576000548110156114825760006004600083815260200190815260200160002054905060007c0100000000000000000000000000000000000000000000000000000000821603611480575b6000810361147657600460008360019003935083815260200190815260200160002054905061144c565b80925050506114b5565b505b5b6040517fdf2d9b4200000000000000000000000000000000000000000000000000000000815260040160405180910390fd5b919050565b60008060006006600085815260200190815260200160002090508092508254915050915091565b600073ffffffffffffffffffffffffffffffffffffffff8316925073ffffffffffffffffffffffffffffffffffffffff821691508382148383141790509392505050565b50505050565b60008060e883901c905060e861154286868461190c565b62ffffff16901b9150509392505050565b600073ffffffffffffffffffffffffffffffffffffffff83169250814260a01b178317905092915050565b50505050565b61158c611915565b73ffffffffffffffffffffffffffffffffffffffff166115aa610d9a565b73ffffffffffffffffffffffffffffffffffffffff1614611600576040517f08c379a00000000000000000000000000000000000000000000000000000000081526004016115f790612b79565b60405180910390fd5b565b6000600860009054906101000a900473ffffffffffffffffffffffffffffffffffffffff16905081600860006101000a81548173ffffffffffffffffffffffffffffffffffffffff021916908373ffffffffffffffffffffffffffffffffffffffff1602179055508173ffffffffffffffffffffffffffffffffffffffff168173ffffffffffffffffffffffffffffffffffffffff167f8be0079c531659141344cd1fd0a4f28419497f9722a3daafe3b4186f6b6457e060405160405180910390a35050565b600042905090565b6116ea82826040518060200160405280600081525061191d565b5050565b60008373ffffffffffffffffffffffffffffffffffffffff1663150b7a026117146113e1565b8786866040518563ffffffff1660e01b81526004016117369493929190612bee565b6020604051808303816000875af192505050801561177257506040513d601f19601f8201168201806040525081019061176f9190612c4f565b60015b6117eb573d80600081146117a2576040519150601f19603f3d011682016040523d82523d6000602084013e6117a7565b606091505b5060008151036117e3576040517fd1a57ed600000000000000000000000000000000000000000000000000000000815260040160405180910390fd5b805181602001fd5b63150b7a0260e01b7bffffffffffffffffffffffffffffffffffffffffffffffffffffffff1916817bffffffffffffffffffffffffffffffffffffffffffffffffffffffff191614915050949350505050565b60606000600161184d846119ba565b01905060008167ffffffffffffffff81111561186c5761186b612038565b5b6040519080825280601f01601f19166020018201604052801561189e5781602001600182028036833780820191505090505b509050600082602001820190505b600115611901578080600190039150507f3031323334353637383961626364656600000000000000000000000000000000600a86061a8153600a85816118f5576118f4612c7c565b5b049450600085036118ac575b819350505050919050565b60009392505050565b600033905090565b6119278383611b0d565b60008373ffffffffffffffffffffffffffffffffffffffff163b146119b557600080549050600083820390505b61196760008683806001019450866116ee565b61199d576040517fd1a57ed600000000000000000000000000000000000000000000000000000000815260040160405180910390fd5b8181106119545781600054146119b257600080fd5b50505b505050565b600080600090507a184f03e93ff9f4daa797ed6e38ed64bf6a1f0100000000000000008310611a18577a184f03e93ff9f4daa797ed6e38ed64bf6a1f0100000000000000008381611a0e57611a0d612c7c565b5b0492506040810190505b6d04ee2d6d415b85acef81000000008310611a55576d04ee2d6d415b85acef81000000008381611a4b57611a4a612c7c565b5b0492506020810190505b662386f26fc100008310611a8457662386f26fc100008381611a7a57611a79612c7c565b5b0492506010810190505b6305f5e1008310611aad576305f5e1008381611aa357611aa2612c7c565b5b0492506008810190505b6127108310611ad2576127108381611ac857611ac7612c7c565b5b0492506004810190505b60648310611af55760648381611aeb57611aea612c7c565b5b0492506002810190505b600a8310611b04576001810190505b80915050919050565b60008054905060008203611b4d576040517fb562e8dd00000000000000000000000000000000000000000000000000000000815260040160405180910390fd5b611b5a6000848385611525565b600160406001901b178202600560008573ffffffffffffffffffffffffffffffffffffffff1673ffffffffffffffffffffffffffffffffffffffff16815260200190815260200160002060008282540192505081905550611bd183611bc2600086600061152b565b611bcb85611cc8565b17611553565b6004600083815260200190815260200160002081905550600080838301905073ffffffffffffffffffffffffffffffffffffffff85169150828260007fddf252ad1be2c89b69c2b068fc378daa952ba7f163c4a11628f55a4df523b3ef600080a4600183015b818114611c7257808360007fddf252ad1be2c89b69c2b068fc378daa952ba7f163c4a11628f55a4df523b3ef600080a4600181019050611c37565b5060008203611cad576040517f2e07630000000000000000000000000000000000000000000000000000000000815260040160405180910390fd5b806000819055505050611cc3600084838561157e565b505050565b60006001821460e11b9050919050565b6000604051905090565b600080fd5b600080fd5b60007fffffffff0000000000000000000000000000000000000000000000000000000082169050919050565b611d2181611cec565b8114611d2c57600080fd5b50565b600081359050611d3e81611d18565b92915050565b600060208284031215611d5a57611d59611ce2565b5b6000611d6884828501611d2f565b91505092915050565b60008115159050919050565b611d8681611d71565b82525050565b6000602082019050611da16000830184611d7d565b92915050565b600081519050919050565b600082825260208201905092915050565b60005b83811015611de1578082015181840152602081019050611dc6565b60008484015250505050565b6000601f19601f8301169050919050565b6000611e0982611da7565b611e138185611db2565b9350611e23818560208601611dc3565b611e2c81611ded565b840191505092915050565b60006020820190508181036000830152611e518184611dfe565b905092915050565b6000819050919050565b611e6c81611e59565b8114611e7757600080fd5b50565b600081359050611e8981611e63565b92915050565b600060208284031215611ea557611ea4611ce2565b5b6000611eb384828501611e7a565b91505092915050565b600073ffffffffffffffffffffffffffffffffffffffff82169050919050565b6000611ee782611ebc565b9050919050565b611ef781611edc565b82525050565b6000602082019050611f126000830184611eee565b92915050565b611f2181611edc565b8114611f2c57600080fd5b50565b600081359050611f3e81611f18565b92915050565b60008060408385031215611f5b57611f5a611ce2565b5b6000611f6985828601611f2f565b9250506020611f7a85828601611e7a565b9150509250929050565b611f8d81611e59565b82525050565b6000602082019050611fa86000830184611f84565b92915050565b600080600060608486031215611fc757611fc6611ce2565b5b6000611fd586828701611f2f565b9350506020611fe686828701611f2f565b9250506040611ff786828701611e7a565b9150509250925092565b60006020828403121561201757612016611ce2565b5b600061202584828501611f2f565b91505092915050565b600080fd5b600080fd5b7f4e487b7100000000000000000000000000000000000000000000000000000000600052604160045260246000fd5b61207082611ded565b810181811067ffffffffffffffff8211171561208f5761208e612038565b5b80604052505050565b60006120a2611cd8565b90506120ae8282612067565b919050565b600067ffffffffffffffff8211156120ce576120cd612038565b5b6120d782611ded565b9050602081019050919050565b82818337600083830152505050565b6000612106612101846120b3565b612098565b90508281526020810184848401111561212257612121612033565b5b61212d8482856120e4565b509392505050565b600082601f83011261214a5761214961202e565b5b813561215a8482602086016120f3565b91505092915050565b60006020828403121561217957612178611ce2565b5b600082013567ffffffffffffffff81111561219757612196611ce7565b5b6121a384828501612135565b91505092915050565b6121b581611d71565b81146121c057600080fd5b50565b6000813590506121d2816121ac565b92915050565b600080604083850312156121ef576121ee611ce2565b5b60006121fd85828601611f2f565b925050602061220e858286016121c3565b9150509250929050565b600067ffffffffffffffff82111561223357612232612038565b5b61223c82611ded565b9050602081019050919050565b600061225c61225784612218565b612098565b90508281526020810184848401111561227857612277612033565b5b6122838482856120e4565b509392505050565b600082601f8301126122a05761229f61202e565b5b81356122b0848260208601612249565b91505092915050565b600080600080608085870312156122d3576122d2611ce2565b5b60006122e187828801611f2f565b94505060206122f287828801611f2f565b935050604061230387828801611e7a565b925050606085013567ffffffffffffffff81111561232457612323611ce7565b5b6123308782880161228b565b91505092959194509250565b6000806040838503121561235357612352611ce2565b5b600061236185828601611f2f565b925050602061237285828601611f2f565b9150509250929050565b7f4e487b7100000000000000000000000000000000000000000000000000000000600052602260045260246000fd5b600060028204905060018216806123c357607f821691505b6020821081036123d6576123d561237c565b5b50919050565b600081905092915050565b50565b60006123f76000836123dc565b9150612402826123e7565b600082019050919050565b6000612418826123ea565b9150819050919050565b7f53616c6520686173206e6f742073746172746564207965740000000000000000600082015250565b6000612458601883611db2565b915061246382612422565b602082019050919050565b600060208201905081810360008301526124878161244b565b9050919050565b7f4e487b7100000000000000000000000000000000000000000000000000000000600052601160045260246000fd5b60006124c882611e59565b91506124d383611e59565b92508282019050808211156124eb576124ea61248e565b5b92915050565b7f4d617820737570706c7920657863656564656400000000000000000000000000600082015250565b6000612527601383611db2565b9150612532826124f1565b602082019050919050565b600060208201905081810360008301526125568161251a565b9050919050565b600061256882611e59565b915061257383611e59565b925082820261258181611e59565b915082820484148315176125985761259761248e565b5b5092915050565b7f4e6f7420656e6f756768742066756e6473000000000000000000000000000000600082015250565b60006125d5601183611db2565b91506125e08261259f565b602082019050919050565b60006020820190508181036000830152612604816125c8565b9050919050565b7f4f6e6c792033204e465473207065722057616c6c657400000000000000000000600082015250565b6000612641601683611db2565b915061264c8261260b565b602082019050919050565b6000602082019050818103600083015261267081612634565b9050919050565b60008190508160005260206000209050919050565b60006020601f8301049050919050565b600082821b905092915050565b6000600883026126d97fffffffffffffffffffffffffffffffffffffffffffffffffffffffffffffffff8261269c565b6126e3868361269c565b95508019841693508086168417925050509392505050565b6000819050919050565b600061272061271b61271684611e59565b6126fb565b611e59565b9050919050565b6000819050919050565b61273a83612705565b61274e61274682612727565b8484546126a9565b825550505050565b600090565b612763612756565b61276e818484612731565b505050565b5b818110156127925761278760008261275b565b600181019050612774565b5050565b601f8211156127d7576127a881612677565b6127b18461268c565b810160208510156127c0578190505b6127d46127cc8561268c565b830182612773565b50505b505050565b600082821c905092915050565b60006127fa600019846008026127dc565b1980831691505092915050565b600061281383836127e9565b9150826002028217905092915050565b61282c82611da7565b67ffffffffffffffff81111561284557612844612038565b5b61284f82546123ab565b61285a828285612796565b600060209050601f83116001811461288d576000841561287b578287015190505b6128858582612807565b8655506128ed565b601f19841661289b86612677565b60005b828110156128c35784890151825560018201915060208501945060208101905061289e565b868310156128e057848901516128dc601f8916826127e9565b8355505b6001600288020188555050505b505050505050565b7f55524920717565727920666f72206e6f6e6578697374656e7420746f6b656e00600082015250565b600061292b601f83611db2565b9150612936826128f5565b602082019050919050565b6000602082019050818103600083015261295a8161291e565b9050919050565b600081905092915050565b60008154612979816123ab565b6129838186612961565b9450600182166000811461299e57600181146129b3576129e6565b60ff19831686528115158202860193506129e6565b6129bc85612677565b60005b838110156129de578154818901526001820191506020810190506129bf565b838801955050505b50505092915050565b60006129fa82611da7565b612a048185612961565b9350612a14818560208601611dc3565b80840191505092915050565b7f2e6a736f6e000000000000000000000000000000000000000000000000000000600082015250565b6000612a56600583612961565b9150612a6182612a20565b600582019050919050565b6000612a78828561296c565b9150612a8482846129ef565b9150612a8f82612a49565b91508190509392505050565b7f4f776e61626c653a206e6577206f776e657220697320746865207a65726f206160008201527f6464726573730000000000000000000000000000000000000000000000000000602082015250565b6000612af7602683611db2565b9150612b0282612a9b565b604082019050919050565b60006020820190508181036000830152612b2681612aea565b9050919050565b7f4f776e61626c653a2063616c6c6572206973206e6f7420746865206f776e6572600082015250565b6000612b63602083611db2565b9150612b6e82612b2d565b602082019050919050565b60006020820190508181036000830152612b9281612b56565b9050919050565b600081519050919050565b600082825260208201905092915050565b6000612bc082612b99565b612bca8185612ba4565b9350612bda818560208601611dc3565b612be381611ded565b840191505092915050565b6000608082019050612c036000830187611eee565b612c106020830186611eee565b612c1d6040830185611f84565b8181036060830152612c2f8184612bb5565b905095945050505050565b600081519050612c4981611d18565b92915050565b600060208284031215612c6557612c64611ce2565b5b6000612c7384828501612c3a565b91505092915050565b7f4e487b7100000000000000000000000000000000000000000000000000000000600052601260045260246000fdfea264697066735822122041979115f122a593424b1c36790c9f8b2ce7e3d29a00465b65b83b0a5d3c92fc64736f6c63430008130033",
  "devdoc": {
    "events": {
      "Approval(address,address,uint256)": {
        "details": "Emitted when `owner` enables `approved` to manage the `tokenId` token."
      },
      "ApprovalForAll(address,address,bool)": {
        "details": "Emitted when `owner` enables or disables (`approved`) `operator` to manage all of its assets."
      },
      "ConsecutiveTransfer(uint256,uint256,address,address)": {
        "details": "Emitted when tokens in `fromTokenId` to `toTokenId` (inclusive) is transferred from `from` to `to`, as defined in the [ERC2309](https://eips.ethereum.org/EIPS/eip-2309) standard. See {_mintERC2309} for more details."
      },
      "Transfer(address,address,uint256)": {
        "details": "Emitted when `tokenId` token is transferred from `from` to `to`."
      }
    },
    "kind": "dev",
    "methods": {
      "approve(address,uint256)": {
        "details": "Gives permission to `to` to transfer `tokenId` token to another account. The approval is cleared when the token is transferred. Only a single account can be approved at a time, so approving the zero address clears previous approvals. Requirements: - The caller must own the token or be an approved operator. - `tokenId` must exist. Emits an {Approval} event."
      },
      "balanceOf(address)": {
        "details": "Returns the number of tokens in `owner`'s account."
      },
      "getApproved(uint256)": {
        "details": "Returns the account approved for `tokenId` token. Requirements: - `tokenId` must exist."
      },
      "isApprovedForAll(address,address)": {
        "details": "Returns if the `operator` is allowed to manage all of the assets of `owner`. See {setApprovalForAll}."
      },
      "mint(uint256)": {
        "params": {
          "_quantity": "Amount of NFTs the user wants to mint*"
        }
      },
      "name()": {
        "details": "Returns the token collection name."
      },
      "owner()": {
        "details": "Returns the address of the current owner."
      },
      "ownerOf(uint256)": {
        "details": "Returns the owner of the `tokenId` token. Requirements: - `tokenId` must exist."
      },
      "renounceOwnership()": {
        "details": "Leaves the contract without owner. It will not be possible to call `onlyOwner` functions anymore. Can only be called by the current owner. NOTE: Renouncing ownership will leave the contract without an owner, thereby removing any functionality that is only available to the owner."
      },
      "safeTransferFrom(address,address,uint256)": {
        "details": "Equivalent to `safeTransferFrom(from, to, tokenId, '')`."
      },
      "safeTransferFrom(address,address,uint256,bytes)": {
        "details": "Safely transfers `tokenId` token from `from` to `to`. Requirements: - `from` cannot be the zero address. - `to` cannot be the zero address. - `tokenId` token must exist and be owned by `from`. - If the caller is not `from`, it must be approved to move this token by either {approve} or {setApprovalForAll}. - If `to` refers to a smart contract, it must implement {IERC721Receiver-onERC721Received}, which is called upon a safe transfer. Emits a {Transfer} event."
      },
      "setApprovalForAll(address,bool)": {
        "details": "Approve or remove `operator` as an operator for the caller. Operators can call {transferFrom} or {safeTransferFrom} for any token owned by the caller. Requirements: - The `operator` cannot be the caller. Emits an {ApprovalForAll} event."
      },
      "setBaseUri(string)": {
        "params": {
          "_baseURI": "The new base URI of the NFTs*"
        }
      },
      "setSaleStartTime(uint256)": {
        "params": {
          "_saleStartTime": "The new saleStartTime*"
        }
      },
      "supportsInterface(bytes4)": {
        "details": "Returns true if this contract implements the interface defined by `interfaceId`. See the corresponding [EIP section](https://eips.ethereum.org/EIPS/eip-165#how-interfaces-are-identified) to learn more about how these ids are created. This function call must use less than 30000 gas."
      },
      "symbol()": {
        "details": "Returns the token collection symbol."
      },
      "tokenURI(uint256)": {
        "params": {
          "_tokenId": "The ID of the NFT you want to have the URI*"
        }
      },
      "totalSupply()": {
        "details": "Returns the total number of tokens in existence. Burned tokens will reduce the count. To get the total number of tokens minted, please see {_totalMinted}."
      },
      "transferFrom(address,address,uint256)": {
        "details": "Transfers `tokenId` from `from` to `to`. Requirements: - `from` cannot be the zero address. - `to` cannot be the zero address. - `tokenId` token must be owned by `from`. - If the caller is not `from`, it must be approved to move this token by either {approve} or {setApprovalForAll}. Emits a {Transfer} event."
      },
      "transferOwnership(address)": {
        "details": "Transfers ownership of the contract to a new account (`newOwner`). Can only be called by the current owner."
      }
    },
    "version": 1
  },
  "userdoc": {
    "errors": {
      "ApprovalCallerNotOwnerNorApproved()": [
        {
          "notice": "The caller must own the token or be an approved operator."
        }
      ],
      "ApprovalQueryForNonexistentToken()": [
        {
          "notice": "The token does not exist."
        }
      ],
      "BalanceQueryForZeroAddress()": [
        {
          "notice": "Cannot query the balance for the zero address."
        }
      ],
      "MintERC2309QuantityExceedsLimit()": [
        {
          "notice": "The `quantity` minted with ERC2309 exceeds the safety limit."
        }
      ],
      "MintToZeroAddress()": [
        {
          "notice": "Cannot mint to the zero address."
        }
      ],
      "MintZeroQuantity()": [
        {
          "notice": "The quantity of tokens minted must be more than zero."
        }
      ],
      "OwnerQueryForNonexistentToken()": [
        {
          "notice": "The token does not exist."
        }
      ],
      "OwnershipNotInitializedForExtraData()": [
        {
          "notice": "The `extraData` cannot be set on an unintialized ownership slot."
        }
      ],
      "TransferCallerNotOwnerNorApproved()": [
        {
          "notice": "The caller must own the token or be an approved operator."
        }
      ],
      "TransferFromIncorrectOwner()": [
        {
          "notice": "The token must be owned by `from`."
        }
      ],
      "TransferToNonERC721ReceiverImplementer()": [
        {
          "notice": "Cannot safely transfer to a contract that does not implement the ERC721Receiver interface."
        }
      ],
      "TransferToZeroAddress()": [
        {
          "notice": "Cannot transfer to the zero address."
        }
      ],
      "URIQueryForNonexistentToken()": [
        {
          "notice": "The token does not exist."
        }
      ]
    },
    "kind": "user",
    "methods": {
      "mint(uint256)": {
        "notice": "Mint function"
      },
      "setBaseUri(string)": {
        "notice": "Change the base URI of the NFTs"
      },
      "setSaleStartTime(uint256)": {
        "notice": "Change the saleStartTime"
      },
      "tokenURI(uint256)": {
        "notice": "Get the token URI of an NFT by his ID"
      },
      "withdraw()": {
        "notice": "Get paid :D !*"
      }
    },
    "version": 1
  },
  "storageLayout": {
    "storage": [
      {
        "astId": 1458,
        "contract": "contracts/NFTIsERC721A.sol:NFT",
        "label": "_currentIndex",
        "offset": 0,
        "slot": "0",
        "type": "t_uint256"
      },
      {
        "astId": 1460,
        "contract": "contracts/NFTIsERC721A.sol:NFT",
        "label": "_burnCounter",
        "offset": 0,
        "slot": "1",
        "type": "t_uint256"
      },
      {
        "astId": 1462,
        "contract": "contracts/NFTIsERC721A.sol:NFT",
        "label": "_name",
        "offset": 0,
        "slot": "2",
        "type": "t_string_storage"
      },
      {
        "astId": 1464,
        "contract": "contracts/NFTIsERC721A.sol:NFT",
        "label": "_symbol",
        "offset": 0,
        "slot": "3",
        "type": "t_string_storage"
      },
      {
        "astId": 1468,
        "contract": "contracts/NFTIsERC721A.sol:NFT",
        "label": "_packedOwnerships",
        "offset": 0,
        "slot": "4",
        "type": "t_mapping(t_uint256,t_uint256)"
      },
      {
        "astId": 1472,
        "contract": "contracts/NFTIsERC721A.sol:NFT",
        "label": "_packedAddressData",
        "offset": 0,
        "slot": "5",
        "type": "t_mapping(t_address,t_uint256)"
      },
      {
        "astId": 1477,
        "contract": "contracts/NFTIsERC721A.sol:NFT",
        "label": "_tokenApprovals",
        "offset": 0,
        "slot": "6",
        "type": "t_mapping(t_uint256,t_struct(TokenApprovalRef)1390_storage)"
      },
      {
        "astId": 1483,
        "contract": "contracts/NFTIsERC721A.sol:NFT",
        "label": "_operatorApprovals",
        "offset": 0,
        "slot": "7",
        "type": "t_mapping(t_address,t_mapping(t_address,t_bool))"
      },
      {
        "astId": 7,
        "contract": "contracts/NFTIsERC721A.sol:NFT",
        "label": "_owner",
        "offset": 0,
        "slot": "8",
        "type": "t_address"
      },
      {
        "astId": 1195,
        "contract": "contracts/NFTIsERC721A.sol:NFT",
        "label": "saleStartTime",
        "offset": 0,
        "slot": "9",
        "type": "t_uint256"
      },
      {
        "astId": 1197,
        "contract": "contracts/NFTIsERC721A.sol:NFT",
        "label": "baseURI",
        "offset": 0,
        "slot": "10",
        "type": "t_string_storage"
      },
      {
        "astId": 1204,
        "contract": "contracts/NFTIsERC721A.sol:NFT",
        "label": "amountNFTsPerWallet",
        "offset": 0,
        "slot": "11",
        "type": "t_mapping(t_address,t_uint256)"
      }
    ],
    "types": {
      "t_address": {
        "encoding": "inplace",
        "label": "address",
        "numberOfBytes": "20"
      },
      "t_bool": {
        "encoding": "inplace",
        "label": "bool",
        "numberOfBytes": "1"
      },
      "t_mapping(t_address,t_bool)": {
        "encoding": "mapping",
        "key": "t_address",
        "label": "mapping(address => bool)",
        "numberOfBytes": "32",
        "value": "t_bool"
      },
      "t_mapping(t_address,t_mapping(t_address,t_bool))": {
        "encoding": "mapping",
        "key": "t_address",
        "label": "mapping(address => mapping(address => bool))",
        "numberOfBytes": "32",
        "value": "t_mapping(t_address,t_bool)"
      },
      "t_mapping(t_address,t_uint256)": {
        "encoding": "mapping",
        "key": "t_address",
        "label": "mapping(address => uint256)",
        "numberOfBytes": "32",
        "value": "t_uint256"
      },
      "t_mapping(t_uint256,t_struct(TokenApprovalRef)1390_storage)": {
        "encoding": "mapping",
        "key": "t_uint256",
        "label": "mapping(uint256 => struct ERC721A.TokenApprovalRef)",
        "numberOfBytes": "32",
        "value": "t_struct(TokenApprovalRef)1390_storage"
      },
      "t_mapping(t_uint256,t_uint256)": {
        "encoding": "mapping",
        "key": "t_uint256",
        "label": "mapping(uint256 => uint256)",
        "numberOfBytes": "32",
        "value": "t_uint256"
      },
      "t_string_storage": {
        "encoding": "bytes",
        "label": "string",
        "numberOfBytes": "32"
      },
      "t_struct(TokenApprovalRef)1390_storage": {
        "encoding": "inplace",
        "label": "struct ERC721A.TokenApprovalRef",
        "members": [
          {
            "astId": 1389,
            "contract": "contracts/NFTIsERC721A.sol:NFT",
            "label": "value",
            "offset": 0,
            "slot": "0",
            "type": "t_address"
          }
        ],
        "numberOfBytes": "32"
      },
      "t_uint256": {
        "encoding": "inplace",
        "label": "uint256",
        "numberOfBytes": "32"
      }
    }
  }
}